{
  "_format": "hh-sol-artifact-1",
  "contractName": "ChocoMintSellableWrapper",
  "sourceName": "contracts/drafts/choco/ChocoMintSellableWrapper.sol",
  "abi": [
    {
      "anonymous": false,
      "inputs": [
        {
          "indexed": true,
          "internalType": "address",
          "name": "previousOwner",
          "type": "address"
        },
        {
          "indexed": true,
          "internalType": "address",
          "name": "newOwner",
          "type": "address"
        }
      ],
      "name": "OwnershipTransferred",
      "type": "event"
    },
    {
      "anonymous": false,
      "inputs": [
        {
          "indexed": false,
          "internalType": "address",
          "name": "account",
          "type": "address"
        },
        {
          "indexed": false,
          "internalType": "uint256",
          "name": "shares",
          "type": "uint256"
        }
      ],
      "name": "PayeeAdded",
      "type": "event"
    },
    {
      "anonymous": false,
      "inputs": [
        {
          "indexed": false,
          "internalType": "address",
          "name": "from",
          "type": "address"
        },
        {
          "indexed": false,
          "internalType": "uint256",
          "name": "amount",
          "type": "uint256"
        }
      ],
      "name": "PaymentReceived",
      "type": "event"
    },
    {
      "anonymous": false,
      "inputs": [
        {
          "indexed": false,
          "internalType": "address",
          "name": "to",
          "type": "address"
        },
        {
          "indexed": false,
          "internalType": "uint256",
          "name": "amount",
          "type": "uint256"
        }
      ],
      "name": "PaymentReleased",
      "type": "event"
    },
    {
      "inputs": [],
      "name": "chocomintERC721",
      "outputs": [
        {
          "internalType": "contract IChocoMintERC721",
          "name": "",
          "type": "address"
        }
      ],
      "stateMutability": "view",
      "type": "function"
    },
    {
      "inputs": [
        {
          "internalType": "address",
          "name": "_chocomintERC721Address",
          "type": "address"
        },
        {
          "internalType": "uint256",
          "name": "_preSalePrice",
          "type": "uint256"
        },
        {
          "internalType": "uint256",
          "name": "_publicSalePrice",
          "type": "uint256"
        },
        {
          "internalType": "uint256",
          "name": "_supplyLimit",
          "type": "uint256"
        },
        {
          "internalType": "uint256",
          "name": "_mintLimit",
          "type": "uint256"
        },
        {
          "internalType": "uint256",
          "name": "_preSaleStartTimestamp",
          "type": "uint256"
        },
        {
          "internalType": "uint256",
          "name": "_publicSaleStartTimestamp",
          "type": "uint256"
        },
        {
          "internalType": "address[]",
          "name": "_payees",
          "type": "address[]"
        },
        {
          "internalType": "uint256[]",
          "name": "_shares",
          "type": "uint256[]"
        }
      ],
      "name": "initialize",
      "outputs": [],
      "stateMutability": "nonpayable",
      "type": "function"
    },
    {
      "inputs": [],
      "name": "mintLimit",
      "outputs": [
        {
          "internalType": "uint256",
          "name": "",
          "type": "uint256"
        }
      ],
      "stateMutability": "view",
      "type": "function"
    },
    {
      "inputs": [
        {
          "internalType": "bytes32[]",
          "name": "_proof",
          "type": "bytes32[]"
        }
      ],
      "name": "mintProof",
      "outputs": [],
      "stateMutability": "payable",
      "type": "function"
    },
    {
      "inputs": [],
      "name": "mintPublic",
      "outputs": [],
      "stateMutability": "payable",
      "type": "function"
    },
    {
      "inputs": [],
      "name": "owner",
      "outputs": [
        {
          "internalType": "address",
          "name": "",
          "type": "address"
        }
      ],
      "stateMutability": "view",
      "type": "function"
    },
    {
      "inputs": [
        {
          "internalType": "uint256",
          "name": "index",
          "type": "uint256"
        }
      ],
      "name": "payee",
      "outputs": [
        {
          "internalType": "address",
          "name": "",
          "type": "address"
        }
      ],
      "stateMutability": "view",
      "type": "function"
    },
    {
      "inputs": [],
      "name": "preSalePrice",
      "outputs": [
        {
          "internalType": "uint256",
          "name": "",
          "type": "uint256"
        }
      ],
      "stateMutability": "view",
      "type": "function"
    },
    {
      "inputs": [],
      "name": "preSaleStartTimestamp",
      "outputs": [
        {
          "internalType": "uint256",
          "name": "",
          "type": "uint256"
        }
      ],
      "stateMutability": "view",
      "type": "function"
    },
    {
      "inputs": [],
      "name": "publicSalePrice",
      "outputs": [
        {
          "internalType": "uint256",
          "name": "",
          "type": "uint256"
        }
      ],
      "stateMutability": "view",
      "type": "function"
    },
    {
      "inputs": [],
      "name": "publicSaleStartTimestamp",
      "outputs": [
        {
          "internalType": "uint256",
          "name": "",
          "type": "uint256"
        }
      ],
      "stateMutability": "view",
      "type": "function"
    },
    {
      "inputs": [
        {
          "internalType": "address payable",
          "name": "account",
          "type": "address"
        }
      ],
      "name": "release",
      "outputs": [],
      "stateMutability": "nonpayable",
      "type": "function"
    },
    {
      "inputs": [
        {
          "internalType": "address",
          "name": "account",
          "type": "address"
        }
      ],
      "name": "released",
      "outputs": [
        {
          "internalType": "uint256",
          "name": "",
          "type": "uint256"
        }
      ],
      "stateMutability": "view",
      "type": "function"
    },
    {
      "inputs": [],
      "name": "renounceOwnership",
      "outputs": [],
      "stateMutability": "nonpayable",
      "type": "function"
    },
    {
      "inputs": [
        {
          "internalType": "address",
          "name": "_sender",
          "type": "address"
        },
        {
          "internalType": "bytes32[]",
          "name": "_proof",
          "type": "bytes32[]"
        }
      ],
      "name": "reviewSaleProof",
      "outputs": [
        {
          "internalType": "bool",
          "name": "",
          "type": "bool"
        }
      ],
      "stateMutability": "view",
      "type": "function"
    },
    {
      "inputs": [
        {
          "internalType": "address",
          "name": "",
          "type": "address"
        }
      ],
      "name": "saleAllowlistClaimed",
      "outputs": [
        {
          "internalType": "uint256",
          "name": "",
          "type": "uint256"
        }
      ],
      "stateMutability": "view",
      "type": "function"
    },
    {
      "inputs": [],
      "name": "saleMerkleRoot",
      "outputs": [
        {
          "internalType": "bytes32",
          "name": "",
          "type": "bytes32"
        }
      ],
      "stateMutability": "view",
      "type": "function"
    },
    {
      "inputs": [
        {
          "internalType": "bytes32",
          "name": "_merkleRoot",
          "type": "bytes32"
        }
      ],
      "name": "setSaleMerkleRoot",
      "outputs": [],
      "stateMutability": "nonpayable",
      "type": "function"
    },
    {
      "inputs": [
        {
          "internalType": "address",
          "name": "account",
          "type": "address"
        }
      ],
      "name": "shares",
      "outputs": [
        {
          "internalType": "uint256",
          "name": "",
          "type": "uint256"
        }
      ],
      "stateMutability": "view",
      "type": "function"
    },
    {
      "inputs": [],
      "name": "supplied",
      "outputs": [
        {
          "internalType": "uint256",
          "name": "",
          "type": "uint256"
        }
      ],
      "stateMutability": "view",
      "type": "function"
    },
    {
      "inputs": [],
      "name": "supplyLimit",
      "outputs": [
        {
          "internalType": "uint256",
          "name": "",
          "type": "uint256"
        }
      ],
      "stateMutability": "view",
      "type": "function"
    },
    {
      "inputs": [],
      "name": "totalReleased",
      "outputs": [
        {
          "internalType": "uint256",
          "name": "",
          "type": "uint256"
        }
      ],
      "stateMutability": "view",
      "type": "function"
    },
    {
      "inputs": [],
      "name": "totalShares",
      "outputs": [
        {
          "internalType": "uint256",
          "name": "",
          "type": "uint256"
        }
      ],
      "stateMutability": "view",
      "type": "function"
    },
    {
      "inputs": [
        {
          "internalType": "address",
          "name": "newOwner",
          "type": "address"
        }
      ],
      "name": "transferOwnership",
      "outputs": [],
      "stateMutability": "nonpayable",
      "type": "function"
    },
    {
      "stateMutability": "payable",
      "type": "receive"
    }
  ],
  "bytecode": "0x608060405234801561001057600080fd5b50611f0e806100206000396000f3fe60806040526004361061014f5760003560e01c80639b6860c8116100b6578063d4a417e61161006f578063d4a417e614610385578063d7822c991461039a578063e33b7de3146103af578063e757c17d146103c4578063f2fde38b146103d9578063f91eb630146103f957610196565b80639b6860c8146102d95780639cf0772d146102ee578063a96d3e5914610303578063b926e62414610318578063cd2f4af214610345578063ce7c2ac21461036557610196565b80638b83209b116101085780638b83209b1461023a5780638c874ebd146102675780638da5cb5b1461026f5780639852595c14610284578063996517cf146102a45780639a0fc622146102b957610196565b8063191655871461019b57806319d1997a146101bd5780633a98ef39146101e85780636e422831146101fd578063715018a61461021257806371f902db1461022757610196565b36610196577f6ef95f06320e7a25a04a175ca677b7052bdd97131872c2192525a629f51be77061017d610419565b3460405161018c929190611758565b60405180910390a1005b600080fd5b3480156101a757600080fd5b506101bb6101b6366004611429565b61041d565b005b3480156101c957600080fd5b506101d261056b565b6040516101df919061177c565b60405180910390f35b3480156101f457600080fd5b506101d2610571565b34801561020957600080fd5b506101d2610577565b34801561021e57600080fd5b506101bb61057d565b6101bb6102353660046115b4565b6105c8565b34801561024657600080fd5b5061025a6102553660046115f4565b610831565b6040516101df9190611744565b6101bb61086f565b34801561027b57600080fd5b5061025a610aaf565b34801561029057600080fd5b506101d261029f366004611429565b610abe565b3480156102b057600080fd5b506101d2610ad9565b3480156102c557600080fd5b506101d26102d4366004611429565b610adf565b3480156102e557600080fd5b506101d2610af1565b3480156102fa57600080fd5b5061025a610af7565b34801561030f57600080fd5b506101d2610b06565b34801561032457600080fd5b5061033861033336600461144c565b610b0c565b6040516101df9190611771565b34801561035157600080fd5b506101bb61036036600461149f565b610b7d565b34801561037157600080fd5b506101d2610380366004611429565b610c46565b34801561039157600080fd5b506101d2610c61565b3480156103a657600080fd5b506101d2610c67565b3480156103bb57600080fd5b506101d2610c6d565b3480156103d057600080fd5b506101d2610c73565b3480156103e557600080fd5b506101bb6103f4366004611429565b610c79565b34801561040557600080fd5b506101bb6104143660046115f4565b610cea565b3390565b6001600160a01b03811660009081526035602052604090205461045b5760405162461bcd60e51b8152600401610452906118c1565b60405180910390fd5b60006034544761046b9190611d74565b6001600160a01b03831660009081526036602090815260408083205460335460359093529083205493945091926104a29085611dac565b6104ac9190611d8c565b6104b69190611dcb565b9050806104d55760405162461bcd60e51b815260040161045290611a35565b6001600160a01b0383166000908152603660205260409020546104f9908290611d74565b6001600160a01b038416600090815260366020526040902055603454610520908290611d74565b60345561052d8382610d2e565b7fdf20fd1e76bc69d672e4814fafb2c449bba3a5369d8359adf9e05e6fde87b056838260405161055e929190611758565b60405180910390a1505050565b609b5481565b60335490565b60985481565b610585610419565b6001600160a01b0316610596610aaf565b6001600160a01b0316146105bc5760405162461bcd60e51b815260040161045290611b15565b6105c66000610dcf565b565b609d544210156105ea5760405162461bcd60e51b815260040161045290611907565b609b546098541061060d5760405162461bcd60e51b815260040161045290611a80565b609954341461062e5760405162461bcd60e51b8152600401610452906119a9565b609c5433600090815260a060205260409020541061065e5760405162461bcd60e51b8152600401610452906117d2565b610669338383610b0c565b6106855760405162461bcd60e51b815260040161045290611b9c565b60006040518060600160405280600081526020016402540be3ff81526020016000815250905060006040518060a00160405280838152602001306001600160a01b03168152602001336001600160a01b0316815260200160985460016106eb9190611d74565b8152602001604051806020016040528060008152508152509050600061071082610e21565b905060006040518060600160405280838152602001600067ffffffffffffffff81111561074d57634e487b7160e01b600052604160045260246000fd5b604051908082528060200260200182016040528015610776578160200160208202803683370190505b5081526040805160208181018352600082529092019190915260975490516319a1411560e31b81529192506001600160a01b03169063cd0a08a8906107c19086908590600401611c9e565b600060405180830381600087803b1580156107db57600080fd5b505af11580156107ef573d6000803e3d6000fd5b50506098805492509050600061080483611de2565b909155505033600090815260a06020526040812080549161082483611de2565b9190505550505050505050565b60006037828154811061085457634e487b7160e01b600052603260045260246000fd5b6000918252602090912001546001600160a01b031692915050565b609e544210156108915760405162461bcd60e51b815260040161045290611907565b609b54609854106108b45760405162461bcd60e51b815260040161045290611a80565b609a5434146108d55760405162461bcd60e51b8152600401610452906119a9565b609c5433600090815260a06020526040902054106109055760405162461bcd60e51b8152600401610452906117d2565b60006040518060600160405280600081526020016402540be3ff81526020016000815250905060006040518060a00160405280838152602001306001600160a01b03168152602001336001600160a01b03168152602001609854600161096b9190611d74565b8152602001604051806020016040528060008152508152509050600061099082610e21565b905060006040518060600160405280838152602001600067ffffffffffffffff8111156109cd57634e487b7160e01b600052604160045260246000fd5b6040519080825280602002602001820160405280156109f6578160200160208202803683370190505b5081526040805160208181018352600082529092019190915260975490516319a1411560e31b81529192506001600160a01b03169063cd0a08a890610a419086908590600401611c9e565b600060405180830381600087803b158015610a5b57600080fd5b505af1158015610a6f573d6000803e3d6000fd5b505060988054925090506000610a8483611de2565b909155505033600090815260a060205260408120805491610aa483611de2565b919050555050505050565b6065546001600160a01b031690565b6001600160a01b031660009081526036602052604090205490565b609c5481565b60a06020526000908152604090205481565b609a5481565b6097546001600160a01b031681565b609d5481565b6000610b7583838080602002602001604051908101604052809392919081815260200183836020028082843760009201919091525050609f54604051909250610b5a915088906020016116c7565b60405160208183030381529060405280519060200120610e9d565b949350505050565b600054610100900460ff1680610b96575060005460ff16155b610bb25760405162461bcd60e51b815260040161045290611ac7565b600054610100900460ff16158015610bdd576000805460ff1961ff0019909116610100171660011790555b609780546001600160a01b0319166001600160a01b038c161790556099899055609a889055609b879055609c869055609d859055609e849055610c208383610f58565b610c28610fe0565b8015610c3a576000805461ff00191690555b50505050505050505050565b6001600160a01b031660009081526035602052604090205490565b609f5481565b609e5481565b60345490565b60995481565b610c81610419565b6001600160a01b0316610c92610aaf565b6001600160a01b031614610cb85760405162461bcd60e51b815260040161045290611b15565b6001600160a01b038116610cde5760405162461bcd60e51b81526004016104529061187b565b610ce781610dcf565b50565b610cf2610419565b6001600160a01b0316610d03610aaf565b6001600160a01b031614610d295760405162461bcd60e51b815260040161045290611b15565b609f55565b80471015610d4e5760405162461bcd60e51b8152600401610452906119fe565b6000826001600160a01b031682604051610d6790611741565b60006040518083038185875af1925050503d8060008114610da4576040519150601f19603f3d011682016040523d82523d6000602084013e610da9565b606091505b5050905080610dca5760405162461bcd60e51b81526004016104529061194c565b505050565b606580546001600160a01b038381166001600160a01b0319831681179093556040519116919082907f8be0079c531659141344cd1fd0a4f28419497f9722a3daafe3b4186f6b6457e090600090a35050565b60006040518060c00160405280609a8152602001611e3f609a913980519060200120610e508360000151611064565b836020015184604001518560600151866080015180519060200120604051602001610e8096959493929190611785565b604051602081830303815290604052805190602001209050919050565b600081815b8551811015610f4d576000868281518110610ecd57634e487b7160e01b600052603260045260246000fd5b60200260200101519050808311610f0e578281604051602001610ef19291906116e4565b604051602081830303815290604052805190602001209250610f3a565b8083604051602001610f219291906116e4565b6040516020818303038152906040528051906020012092505b5080610f4581611de2565b915050610ea2565b509092149392505050565b600054610100900460ff1680610f71575060005460ff16155b610f8d5760405162461bcd60e51b815260040161045290611ac7565b600054610100900460ff16158015610fb8576000805460ff1961ff0019909116610100171660011790555b610fc06110ad565b610fca8383611120565b8015610dca576000805461ff0019169055505050565b600054610100900460ff1680610ff9575060005460ff16155b6110155760405162461bcd60e51b815260040161045290611ac7565b600054610100900460ff16158015611040576000805460ff1961ff0019909116610100171660011790555b61105061104b610419565b610dcf565b8015610ce7576000805461ff001916905550565b6000604051602001611075906116f2565b60405160208183030381529060405280519060200120826000015183602001518460400151604051602001610e8094939291906117b7565b600054610100900460ff16806110c6575060005460ff16155b6110e25760405162461bcd60e51b815260040161045290611ac7565b600054610100900460ff16158015611050576000805460ff1961ff0019909116610100171660011790558015610ce7576000805461ff001916905550565b600054610100900460ff1680611139575060005460ff16155b6111555760405162461bcd60e51b815260040161045290611ac7565b600054610100900460ff16158015611180576000805460ff1961ff0019909116610100171660011790555b81518351146111a15760405162461bcd60e51b815260040161045290611b4a565b60008351116111c25760405162461bcd60e51b815260040161045290611c30565b60005b8351811015611238576112268482815181106111f157634e487b7160e01b600052603260045260246000fd5b602002602001015184838151811061121957634e487b7160e01b600052603260045260246000fd5b602002602001015161124f565b8061123081611de2565b9150506111c5565b508015610dca576000805461ff0019169055505050565b6001600160a01b0382166112755760405162461bcd60e51b81526004016104529061182f565b600081116112955760405162461bcd60e51b815260040161045290611c67565b6001600160a01b038216600090815260356020526040902054156112cb5760405162461bcd60e51b815260040161045290611be5565b60378054600181019091557f42a7b7dd785cd69714a189dffb3fd7d7174edc9ece837694ce50f7078f7c31ae0180546001600160a01b0319166001600160a01b0384169081179091556000908152603560205260409020819055603354611333908290611d74565b6033556040517f40c340f65e17194d14ddddb073d3c9f888e3cb52b5aae0c6c7706b4fbc905fac906113689084908490611758565b60405180910390a15050565b60008083601f840112611385578182fd5b50813567ffffffffffffffff81111561139c578182fd5b60208301915083602080830285010111156113b657600080fd5b9250929050565b600082601f8301126113cd578081fd5b813560206113e26113dd83611d50565b611d26565b82815281810190858301838502870184018810156113fe578586fd5b855b8581101561141c57813584529284019290840190600101611400565b5090979650505050505050565b60006020828403121561143a578081fd5b813561144581611e29565b9392505050565b600080600060408486031215611460578182fd5b833561146b81611e29565b9250602084013567ffffffffffffffff811115611486578283fd5b61149286828701611374565b9497909650939450505050565b60008060008060008060008060006101208a8c0312156114bd578485fd5b6114c78a35611e29565b8935985060208a0135975060408a0135965060608a0135955060808a0135945060a08a0135935060c08a0135925060e08a013567ffffffffffffffff8082111561150f578384fd5b818c0191508c601f830112611522578384fd5b61152f6113dd8335611d50565b8083358252602082019150602084018f6020808735028701011115611552578687fd5b865b853581101561157d576115678235611e29565b8135845260209384019390910190600101611554565b5090955050506101008c0135915080821115611597578283fd5b506115a48c828d016113bd565b9150509295985092959850929598565b600080602083850312156115c6578182fd5b823567ffffffffffffffff8111156115dc578283fd5b6115e885828601611374565b90969095509350505050565b600060208284031215611605578081fd5b5035919050565b60008151808452815b8181101561163157602081850181015186830182015201611615565b818111156116425782602083870101525b50601f01601f19169290920160200192915050565b6000606083018251845260208084015160608287015282815180855260808801915083830194508592505b808310156116a25784518252938301936001929092019190830190611682565b506040860151935086810360408801526116bc818561160c565b979650505050505050565b60609190911b6bffffffffffffffffffffffff1916815260140190565b918252602082015260400190565b7f5365637572697479446174612875696e743235362076616c696446726f6d2c7581527f696e743235362076616c6964546f2c75696e743235362073616c7429000000006020820152603c0190565b90565b6001600160a01b0391909116815260200190565b6001600160a01b03929092168252602082015260400190565b901515815260200190565b90815260200190565b95865260208601949094526001600160a01b03928316604086015291166060840152608083015260a082015260c00190565b93845260208401929092526040830152606082015260800190565b60208082526037908201527f53656c6c61626c65577261707065723a20796f75206861766520616c7265616460408201527f79206d696e746564206d6178696d756d20746f6b656e73000000000000000000606082015260800190565b6020808252602c908201527f5061796d656e7453706c69747465723a206163636f756e74206973207468652060408201526b7a65726f206164647265737360a01b606082015260800190565b60208082526026908201527f4f776e61626c653a206e6577206f776e657220697320746865207a65726f206160408201526564647265737360d01b606082015260800190565b60208082526026908201527f5061796d656e7453706c69747465723a206163636f756e7420686173206e6f2060408201526573686172657360d01b606082015260800190565b60208082526025908201527f53656c6c61626c65577261707065723a2073616c6520686173206e6f74207374604082015264185c9d195960da1b606082015260800190565b6020808252603a908201527f416464726573733a20756e61626c6520746f2073656e642076616c75652c207260408201527f6563697069656e74206d61792068617665207265766572746564000000000000606082015260800190565b60208082526035908201527f53656c6c61626c65577261707065723a206d73672076616c7565206d7573742060408201527462652073616d65206173206d696e7420707269636560581b606082015260800190565b6020808252601d908201527f416464726573733a20696e73756666696369656e742062616c616e6365000000604082015260600190565b6020808252602b908201527f5061796d656e7453706c69747465723a206163636f756e74206973206e6f742060408201526a191d59481c185e5b595b9d60aa1b606082015260800190565b60208082526027908201527f53656c6c61626c65577261707065723a2073616c652068617320616c726561646040820152661e48195b99195960ca1b606082015260800190565b6020808252602e908201527f496e697469616c697a61626c653a20636f6e747261637420697320616c72656160408201526d191e481a5b9a5d1a585b1a5e995960921b606082015260800190565b6020808252818101527f4f776e61626c653a2063616c6c6572206973206e6f7420746865206f776e6572604082015260600190565b60208082526032908201527f5061796d656e7453706c69747465723a2070617965657320616e6420736861726040820152710cae640d8cadccee8d040dad2e6dac2e8c6d60731b606082015260800190565b60208082526029908201527f53656c6c61626c65577261707065723a50726f6f6620646f6573206e6f74206d60408201526861746368206461746160b81b606082015260800190565b6020808252602b908201527f5061796d656e7453706c69747465723a206163636f756e7420616c726561647960408201526a206861732073686172657360a81b606082015260800190565b6020808252601a908201527f5061796d656e7453706c69747465723a206e6f20706179656573000000000000604082015260600190565b6020808252601d908201527f5061796d656e7453706c69747465723a20736861726573206172652030000000604082015260600190565b600060408252835180516040840152602081015160608401526040810151608084015250602084015160018060a01b0380821660a08501528060408701511660c08501525050606084015160e0830152608084015160e0610100840152611d0961012084018261160c565b90508281036020840152611d1d8185611657565b95945050505050565b60405181810167ffffffffffffffff81118282101715611d4857611d48611e13565b604052919050565b600067ffffffffffffffff821115611d6a57611d6a611e13565b5060209081020190565b60008219821115611d8757611d87611dfd565b500190565b600082611da757634e487b7160e01b81526012600452602481fd5b500490565b6000816000190483118215151615611dc657611dc6611dfd565b500290565b600082821015611ddd57611ddd611dfd565b500390565b6000600019821415611df657611df6611dfd565b5060010190565b634e487b7160e01b600052601160045260246000fd5b634e487b7160e01b600052604160045260246000fd5b6001600160a01b0381168114610ce757600080fdfe4d696e744552433732314461746128536563757269747944617461207365637572697479446174612c61646472657373206d696e7465722c6164647265737320746f2c75696e7432353620746f6b656e49642c62797465732064617461295365637572697479446174612875696e743235362076616c696446726f6d2c75696e743235362076616c6964546f2c75696e743235362073616c7429a264697066735822122029449011690dc1ec7257c38a89a2e98774d54697a52f64783468790926c43df964736f6c63430008000033",
  "linkReferences": {},
  "deployedLinkReferences": {}
}